:100000009EC10000CDC10000CBC10000C9C10000ED
:10001000C7C10000C5C10000C3C10000C1C10000CC
:10002000BFC10000BDC10000BBC10000B9C10000DC
:10003000B7C10000B5C10000B3C10000B1C10000EC
:10004000AFC100000C94574CABC10000A9C1000027
:100050000C94854CA5C10000A3C100000C94834BF7
:100060009FC100000C944D4B0C94234B99C1000090
:1000700097C1000095C1000093C1000091C100002C
:100080000C94294C8DC100008BC1000089C1000077
:1000900087C1000085C1000083C1000081C100004C
:1000A0007FC100007DC100000C94FB4B79C10000B2
:1000B00077C1000075C1000073C100000C94CD4BE6
:1000C0006FC100006DC100006BC1000069C100007C
:1000D00067C1000065C1000063C1000061C100008C
:1000E0005FC100004E414E494E495459494E46CDDC
:1000F000CCCC3D0AD7233C17B7D13877CC2B3295DF
:1001000095E6241FB14F0A000020410000C84200BC
:10011000401C4620BCBE4CCA1B0E5AAEC59D740086
:10012000407A10F35A00A0724E18090010A5D4E8C6
:100130000000E87648170000E40B54020000CA9A59
:100140003B000000E1F505000080969800000040AB
:10015000420F000000A086010000001027000000F0
:1001600000E803000000006400000000000A000036
:100170000000000100000000002C76D888DC674FEA
:100180000823DFC1DFAE59E1B1B796E5E3E453C61A
:100190003AE651997696E8E6C28426EB898C9B6212
:1001A000ED407C6FFCEFBC9C9F40F2BAA56FA5F4BC
:1001B00090055A2AF75C936B6CF9676DC11BFCE0E4
:1001C000E40D47FEF520E6B500D0ED902E03009437
:1001D0003577050080841E080000204E0A000000CC
:1001E000C80C333333330F986E12831141EF8D21D6
:1001F00014893BE65516CFFEE6DB18D1844B381B3D
:10020000F77C1D901DA4BBE424203284725E228101
:1002100000C9F124ECA1E53D2700002100240027BE
:10022000002A002D00300033000101000004010706
:10023000010A0100002200250028002B002E0031B9
:1002400000340002010000050108010B010000203C
:10025000002300260029002C002F0032000001009E
:100260000003010601090105050505070508080841
:1002700008020202020A0A08080404040401010137
:10028000010101010103030303030303030407073F
:10029000070C0C0C0C0C0C0C0C02020202060606DD
:1002A00006060606060B0B0B0B0B0B0B0B010210C5
:1002B0002020080810204010204080020102010880
:1002C0000402010102040810204080804020100830
:1002D0000402018004020180402010080402010889
:1002E00004020101020408102040800102040810E9
:1002F00020408000000A0B02090C0D0E08070304C1
:1003000001000000000000000000000000000000EC
:1003100000000000000000000000000000000012CB
:1003200011100000000000000000000000000000AC
:1003300000000000000000000000CF4CD75A11243C
:100340001FBECFEFD1E2DEBFCDBF00E00CBF19E092
:10035000A0E0B2E0ECEAFBEC00E00BBF02C00790CB
:100360000D92A035B107D9F725E1A0E5B9E001C0AC
:100370001D92AE33B207E1F711E0CEE9D1E000E023
:1003800006C021970109802FFE010E94B064CD397B
:10039000D10780E00807A9F70E94C04E0C94C565FC
:1003A0002FCE8CBD9DBD08959C01803E910508F027
:1003B000ADC5FC018827E052FE4F8F4F0C94B0640E
:1003C000C002CD02D602DF02E802F10286078607EC
:1003D000860786078607FE020B0318038607250398
:1003E0002E03370344034D0356035F036803710371
:1003F00086077A0383038C0386078607860795039F
:100400009E03A70386078607B003BD0386078607FA
:100410008607CA03D703E403F103FE0307041004AD
:10042000860786078607190422042B0486073804EA
:10043000450452048607860786075F046C04790426
:1004400086049304A004AD04860786078607BA04D1
:10045000C704D404E104EE04F70400058607860708
:1004600086078D059A05A7058607B405C105CE0543
:10047000860786078607DB05E405ED058607860700
:1004800086078607860786078607F605FF0508069E
:10049000860711061A0623068607860786072C0696
:1004A000390646068607530660066D0686078607E8
:1004B00086077A06870694068607A106AA06B3066B
:1004C000860786078607BC06C506CE06860786070A
:1004D00086078607860786078607860786078607B4
:1004E0008607090512051B05860786078607860706
:1004F0008607860786078607860786078607860794
:100500008607240531053E05860772057B058405AF
:100510008607860786074B05580565058607860703
:100520008607860786078607860786078607860763
:100530008607860786078607860786078607860753
:100540008607860786078607860786078607860743
:100550008607D706E006ED068607FA0603071007AA
:100560008607860786071D07260733078607400785
:100570004907560786078607860763076C077907CA
:1005800081E090E0A0E0B0E08093750A9093760A55
:10059000A093770AB093780A08951092790A10927E
:1005A0007A0A10927B0A10927C0A089510927D0AB2
:1005B00010927E0A10927F0A1092800A089510927B
:1005C000810A1092820A1092830A1092840A089576
:1005D0001092850A1092860A1092870A1092880A51
:1005E000089583E090E0A0E0B0E08093890A9093C2
:1005F0008A0AA0938B0AB0938C0A089588E790E04A
:10060000A0E0B0E08093A10A9093A20AA093A30A6D
:10061000B093A40A089588E790E0A0E0B0E080934A
:10062000A50A9093A60AA093A70AB093A80A0895D2
:1006300088E790E0A0E0B0E08093A90A9093AA0A2E
:10064000A093AB0AB093AC0A08951092B10A10922D
:10065000B20A1092B30A1092B40A08951092B50A21
:100660001092B60A1092B70A1092B80A089581E063
:1006700090E0A0E0B0E08093B90A9093BA0AA0930A
:10068000BB0AB093BC0A08951092BD0A1092BE0A2C
:100690001092BF0A1092C00A08951092C10A1092D7
:1006A000C20A1092C30A1092C40A08951092C50A91
:1006B0001092C60A1092C70A1092C80A08951092A2
:1006C000C90A1092CA0A1092CB0A1092CC0A089555
:1006D0001092CD0A1092CE0A1092CF0A1092D00A30
:1006E00008951092D10A1092D20A1092D30A109251
:1006F000D40A08951092D90A1092DA0A1092DB0AED
:100700001092DC0A08951092DD0A1092DE0A10920F
:10071000DF0A1092E00A08951092E10A1092E20AAC
:100720001092E30A1092E40A08951092F10A1092CE
:10073000F20A1092F30A1092F40A08951092F50A40
:100740001092F60A1092F70A1092F80A0895109281
:10075000F90A1092FA0A1092FB0A1092FC0A089504
:1007600081E090E0A0E0B0E08093050B9093060B51
:10077000A093070BB093080B089581E090E0A0E0F0
:10078000B0E08093090B90930A0BA0930B0BB093EE
:100790000C0B08958CE291E0A0E0B0E08093190B7F
:1007A00090931A0BA0931B0BB0931C0B08958CE233
:1007B00091E0A0E0B0E080931D0B90931E0BA093FE
:1007C0001F0BB093200B08958CE291E0A0E0B0E005
:1007D0008093210B9093220BA093230BB093240BB7
:1007E00008958CE291E0A0E0B0E08093250B909317
:1007F000260BA093270BB093280B08951092290B7A
:1008000010922A0B10922B0B10922C0B0895109221
:100810002D0B10922E0B10922F0B1092300B08956F
:100820001092310B1092320B1092330B1092340B4A
:1008300008951092410B1092420B1092430B1092AC
:10084000440B08951092450B1092460B1092470BE3
:100850001092480B089581E090E0A0E0B0E0809312
:10086000490B90934A0BA0934B0BB0934C0B0895FC
:1008700085E090E0A0E0B0E08093510B9093520BA4
:10088000A093530BB093540B089585E090E0A0E043
:10089000B0E08093550B9093560BA093570BB093F9
:1008A000580B089589E190E0A0E0B0E08093590BE7
:1008B00090935A0BA0935B0BB0935C0B089582E36B
:1008C00090E0A0E0B0E08093690B90936A0BA09356
:1008D0006B0BB0936C0B089582E390E0A0E0B0E066
:1008E00080936D0B90936E0BA0936F0BB093700B76
:1008F000089582E390E0A0E0B0E08093710B9093C4
:10090000720BA093730BB093740B089582E390E085
:10091000A0E0B0E08093750B9093760BA093770BDB
:10092000B093780B089582E390E0A0E0B0E080936C
:10093000790B90937A0BA0937B0BB0937C0B08956B
:1009400082E390E0A0E0B0E080937D0B90937E0B7B
:10095000A0937F0BB093800B089582E390E0A0E01A
:10096000B0E08093810B9093820BA093830BB093A4
:10097000840B089580E991E0A0E0B0E08093910BB2
:100980009093920BA093930BB093940B089580E9EE
:1009900091E0A0E0B0E08093950B9093960BA0932C
:1009A000970BB093980B089580E991E0A0E0B0E038
:1009B0008093990B90939A0BA0939B0BB0939C0BF5
:1009C000089580E991E0A0E0B0E080939D0B9093C2
:1009D0009E0BA0939F0BB093A00B08951092A10BB8
:1009E0001092A20B1092A30B1092A40B08951092D8
:1009F000A50B1092A60B1092A70B1092A80B0895AE
:100A00001092A90B1092AA0B1092AB0B1092AC0B88
:100A100008951092B90C1092BA0C1092BB0C10925F
:100A2000BC0C08951092BD0C1092BE0C1092BF0C1D
:100A30001092C00C08951092C10C1092C20C10922A
:100A4000C30C1092C40C089583E090E0A0E0B0E0E5
:100A50008093F90C9093FA0CA093FB0CB093FC0CD0
:100A6000089583E090E0A0E0B0E08093FD0C9093C7
:100A7000FE0CA093FF0CB093000D089583E090E06E
:100A8000A0E0B0E08093010D9093020DA093030DC0
:100A9000B093040D08958AE090E0A0E0B0E0809368
:100AA000210D9093220DA093230DB093240D089552
:100AB0008AE090E0A0E0B0E08093250D9093260DB1
:100AC000A093270DB093280D08958AE090E0A0E050
:100AD000B0E08093290D90932A0DA0932B0DB09335
:100AE0002C0D08951092090D10920A0D10920B0D05
:100AF00010920C0D089510920D0D10920E0D109283
:100B00000F0D1092100D08951092110D1092120DEC
:100B10001092130D1092140D089588E592E0A0E054
:100B2000B0E08093B90B9093BA0BA093BB0BB0933A
:100B3000BC0B089588E592E0A0E0B0E08093BD0B87
:100B40009093BE0BA093BF0BB093C00B089588E5A4
:100B500092E0A0E0B0E08093C10B9093C20BA09311
:100B6000C30BB093C40B08958EE190E0A0E0B0E019
:100B70008093C90B9093CA0BA093CB0BB093CC0B73
:100B800008958EE190E0A0E0B0E08093CD0B9093CB
:100B9000CE0BA093CF0BB093D00B08958EE190E0D5
:100BA000A0E0B0E08093D10B9093D20BA093D30B35
:100BB000B093D40B08951092E10B1092E20B1092B7
:100BC000E30B1092E40B08951092E50B1092E60BE4
:100BD0001092E70B1092E80B08951092E90B109217
:100BE000EA0B1092EB0B1092EC0B08951092090C8B
:100BF00010920A0C10920B0C10920C0C089510928B
:100C00000D0C10920E0C10920F0C1092100C0895F7
:100C10001092110C1092120C1092130C1092140CD2
:100C200008951092190C10921A0C10921B0C10922D
:100C30001C0C089510921D0C10921E0C10921F0C8B
:100C40001092200C08951092210C1092220C1092F8
:100C5000230C1092240C089585E090E0A0E0B0E011
:100C60008093310C9093320CA093330CB093340CDE
:100C7000089585E090E0A0E0B0E08093350C90937B
:100C8000360CA093370CB093380C089585E090E0B3
:100C9000A0E0B0E08093390C90933A0CA0933B0C09
:100CA000B0933C0C089584EB95E1A0E0B0E0809314
:100CB000410C9093420CA093430CB093440C0895C4
:100CC00084EB95E1A0E0B0E08093450C9093460C56
:100CD000A093470CB093480C089584EB95E1A0E0F5
:100CE000B0E08093490C90934A0CA0934B0CB093C6
:100CF0004C0C089585E090E0A0E0B0E08093590CA2
:100D000090935A0CA0935B0CB0935C0C089585E013
:100D100090E0A0E0B0E080935D0C90935E0CA09317
:100D20005F0CB093600C089585E090E0A0E0B0E027
:100D30008093610C9093620CA093630CB093640C4D
:100D400008951092690C10926A0C10926B0C10921C
:100D50006C0C089510926D0C10926E0C10926F0C2A
:100D60001092700C08951092710C1092720C1092E7
:100D7000730C1092740C08951092810C1092820CD6
:100D80001092830C1092840C08951092850C10928E
:100D9000860C1092870C1092880C08951092890C82
:100DA00010928A0C10928B0C10928C0C0895109259
:100DB000990D10929A0D10929B0D10929C0D089512
:100DC0008CE390E0A0E0B0E080939D0D90939E0DA9
:100DD000A0939F0DB093A00D089581E090E0A0E056
:100DE000B0E08093A10D9093A20DA093A30DB093BA
:100DF000A40D08951092A90D1092AA0D1092AB0D9A
:100E00001092AC0D08958CE390E0A0E0B0E08093E8
:100E1000AD0D9093AE0DA093AF0DB093B00D0895AE
:100E200081E090E0A0E0B0E08093B10D9093B20D2E
:100E3000A093B30DB093B40D08951092C10D10920C
:100E4000C20D1092C30D1092C40D08958CE390E072
:100E5000A0E0B0E08093C50D9093C60DA093C70DA0
:100E6000B093C80D089581E090E0A0E0B0E08093D9
:100E7000C90D9093CA0DA093CB0DB093CC0D0895DE
:100E80001092D10D1092D20D1092D30D1092D40D5C
:100E900008958CE390E0A0E0B0E08093D50D9093AE
:100EA000D60DA093D70DB093D80D089581E090E0B2
:100EB000A0E0B0E08093D90D9093DA0DA093DB0D04
:100EC000B093DC0D08951092E90D1092EA0D109286
:100ED000EB0D1092EC0D08958CE390E0A0E0B0E0F3
:100EE0008093ED0D9093EE0DA093EF0DB093F00D68
:100EF000089581E090E0A0E0B0E08093F10D909340
:100F0000F20DA093F30DB093F40D0895220F331F4B
:100F1000220F331FF901EB58F54F10821182128214
:100F2000138208958C3691050CF04EC089369105D8
:100F3000CCF4863391055CF5833391059CF48C31B8
:100F40009105BCF4893191056CF48E30910564F4FF
:100F50008B3091053CF4009729F097FD08C002976B
:100F6000049728F481E008950F970997D8F380E05B
:100F70000895863291053CF4843291059CF74F9791
:100F80000397A8F7EFCF8997079788F7EBCF8435BA
:100F9000910574F4813591052CF7843491052CF476
:100FA0008D339105FCF6C797EBCF87549109ECCFB1
:100FB0008E35910534F48B359105A4F6855591094C
:100FC000DFCF85569109DCCF843A91051CF5813A33
:100FD000910544F68038910584F48D37910514F617
:100FE000863791053CF4833791050CF0BBCF8F56C3
:100FF0009109C6CF89579109C3CF803991053CF437
:101000008D3891050CF0AECF83589109B9CF815935
:101010009109B6CF803D91058CF48D3C91050CF083
:10102000A1CF8E3A91053CF48B3A91050CF09ACF02
:10103000855A9109A5CF895C9109A2CF8A3D910576
:101040003CF4873D91050CF08DCF835D910998CFDD
:101050008D5D910995CF8CB58C7F8CBD8DB58E7FC4
:101060008DBD0895AF92BF92CF92DF92EF92FF9223
:101070000F931F93CF93DF936C017B018B01040FC0
:10108000151FEB015E01AE18BF08C017D10759F05C
:101090006991D601ED91FC910190F081E02DC6019E
:1010A0001995892B79F7C501DF91CF911F910F9188
:1010B000FF90EF90DF90CF90BF90AF900895FC012C
:1010C000538D448D252F30E0842F90E0821B930BAD
:1010D000541710F0CF96089501970895FC01918D53
:1010E000828D981761F0A28DAE0FBF2FB11D5D9656
:1010F0008C91928D9F5F9F73928F90E008958FEFF8
:101100009FEF0895FC01918D828D981731F0828DAB
:10111000E80FF11D858D90E008958FEF9FEF089502
:10112000FC01918D228D892F90E0805C9F4F821B66
:1011300091098F73992708958AEF9DE0F1DF21E0EF
:10114000892B09F420E0822F0895FC01A48DA80FBB
:10115000B92FB11DA35ABF4F2C91848D90E00196F9
:101160008F739927848FA689B7892C93A089B18919
:101170008C91837080648C93938D848D981306C0BA
:101180000288F389E02D80818F7D80830895EF921E
:10119000FF920F931F93CF93DF93EC0181E0888F31
:1011A0009B8D8C8D98131AC0E889F989808185FF01
:1011B00015C09FB7F894EE89FF896083E889F989A3
:1011C00080818370806480839FBF81E090E0DF91A5
:1011D000CF911F910F91FF90EF900895F62E0B8DF8
:1011E00010E00F5F1F4F0F731127E02E8C8D8E11B3
:1011F0000BC00FB607FCFACFE889F989808185FF1B
:10120000F5CFCE01A2DFF2CFEB8DEC0FFD2FF11D5C
:10121000E35AFF4FF0829FB7F8940B8FEA89FB895E
:1012200080818062D0CF682F8AEF9DE0B0CFCF93CE
:10123000DF93EC01888D8823B1F0AA89BB89E88906
:10124000F9898C9185FD03C0808186FD0CC00FB6A5
:1012500007FCF7CF8C9185FFF2CF808185FFEDCF22
:10126000CE0173DFEACFDF91CF91089580E090E067
:10127000892B21F061DF81110E94000080E090E065
:10128000892B49F080E090E0892B29F00E94000032
:1012900081110E94000080E090E0892B49F080E0FD
:1012A00090E0892B29F00E94000081110E9400002B
:1012B00080E090E0892B49F080E090E0892B29F0D4
:1012C0000E94000081110C94000008958150823129
:1012D00008F05AC0E82FF0E08827EE58F64F8F4FFD
:1012E0000C94B0649209960984098A098E09C4098C
:1012F00099099F09A309A909AD09B109B709BB0952
:10130000C409BF09C509C909809180008F778093FE
:1013100080000895809180008F7DF9CF80918000BA
:10132000877FF5CF84B58F7784BD089584B58F7D91
:10133000FBCF8091B0008F778093B00008958091AB
:10134000B0008F7DF9CF809190008F7780939000CF
:101350000895809190008F7DF9CF80919000877FD4
:10136000F5CF8091A0008F778093A00008958091A1
:10137000A0008F7DF9CF8091A000877FF5CF80916D
:1013800020018F77809320010895809120018F7D27
:10139000F9CF80912001877FF5CFCF93DF93282F5E
:1013A00030E0F901ED50FD4F8491F901E355FD4F17
:1013B000D491F901E959FD4FC491CC2399F08111E1
:1013C00085DFEC2FF0E0EE0FFF1FE35BFD4FA591F3
:1013D000B491EC91ED2381E090E009F480E0DF919D
:1013E000CF91089580E090E0FACF1F93CF93DF93E1
:1013F000282F30E0F901ED50FD4F8491F901E355BC
:10140000FD4FD491F901E959FD4FC491CC23A1F0CE
:10141000162F81115BDFEC2FF0E0EE0FFF1FED5C6C
:10142000FD4FA591B4918FB7F894EC91111108C0BC
:10143000D095DE23DC938FBFDF91CF911F9108956C
:10144000DE2BF8CFCF93DF9390E0FC01E355FD4F07
:10145000249189599D4FFC0184918823C9F090E023
:10146000880F991FFC01E75EFD4FA591B491FC0127
:10147000ED5CFD4FC591D49161110DC09FB7F894FB
:101480008C91209582238C938881282328839FBF69
:10149000DF91CF910895623051F49FB7F8943C9159
:1014A000822F809583238C93E8812E2BEFCF8FB7EB
:1014B000F894EC912E2B2C938FBFEACF82309105BC
:1014C00038F0880F991F880F991F05970197F1F73A
:1014D00008953FB7F8948091670990916809A091A9
:1014E0006909B0916A0926B5A89B05C02F3F19F07C
:1014F0000196A11DB11D3FBFBA2FA92F982F882794
:10150000BC01CD01620F711D811D911D42E0660F6E
:10151000771F881F991F4A95D1F708958F929F9240
:10152000AF92BF92CF92DF92EF92FF926B017C015C
:10153000D0DF4B015C01C114D104E104F104B1F02E
:10154000C8DF681979098A099B09683E73408105DB
:10155000910588F321E0C21AD108E108F10888EE6C
:10156000880E83E0981EA11CB11CE5CFFF90EF9080
:10157000DF90CF90BF90AF909F908F9008952FB73E
:10158000F894609163097091640980916509909164
:1015900066092FBF0895CF92DF92EF92FF92CF930B
:1015A000DF93EC01603282E07807CCF5653B710592
:1015B00014F064EB70E0898128E830E0281B3109E1
:1015C00087FD3395220F331F220F331F6901330F1D
:1015D000EE08FF088A8128E532E0281B310987FDE3
:1015E0003395220F331F220F331F032E000C440BA1
:1015F000550B2C193D094E095F09DB0177FF02C02D
:10160000B0E0A0E00E94456324EB30E040E050E011
:101610000E941F63C20ED31EE41EF51EB601E881B0
:10162000E03370F5298188E890E0821B910927FD5D
:101630009395880F991F880F991F681779077CF079
:101640002A8188E592E0821B910927FD9395880FF6
:10165000991F880F991F681779070CF4CB0102971F
:10166000880F991F4FB7F8942E2F30E0F901EE0F35
:10167000FF1FE20FF31FE956F14F928381834FBFA3
:10168000DF91CF91FF90EF90DF90CF9008951F935F
:10169000CF93DF93EC01162F8881803308F04DC083
:1016A00061E0812FCFDE8881282F30E0F901EE0F35
:1016B000FF1FE20FF31FE956F14F1F736081607C3B
:1016C000612B608319821A822CE0622F0E94916440
:1016D000829FB001112430E020E0AB01420F531F84
:1016E000FA01EE0FFF1FE40FF51FE956F14F90814D
:1016F00096FD16C02F5F3F4F2C30310571F78130BA
:1017000009F51092800082E080938100109285009C
:1017100010928400B19A80916F00826080936F0074
:10172000E8818E2F90E0FC01EE0FFF1FE80FF91FFC
:10173000E956F14F8081806480838881DF91CF9169
:101740001F910895823061F410929000809391006F
:10175000109295001092940088BB80937100E0CFA6
:10176000833069F41092A00082E08093A10010926F
:10177000A5001092A40089BB80937200D1CF811183
:10178000CFCF1092200182E0809321011092250199
:10179000109224018ABB80937300C2CFAF92BF9294
:1017A000CF92DF92EF92FF920F931F93CF93DF932D
:1017B0006B017A01EC01C25AD64F28813CE0389F78
:1017C0008001399F100D1124A090270FB12C27FF05
:1017D0001FC0FB011182108288818F5F88838881FE
:1017E0009801280F311D87FD3A95F6012A153B0512
:1017F0001CF488818C30BCF1808191810496803406
:101800009C4908F471C0F6018081918104966EC0F4
:1018100088819801280F311D87FD3A952A153B05CF
:10182000DCF68881A801480F511D87FD5A95FA0101
:10183000EE0FFF1FE40FF51FE956F14F808186FF81
:10184000CBCF8881F801E80FF11D87FDFA95CF0114
:10185000EE0FFF1FE80FF91FE956F14F808160E09E
:101860008F73C3DDB9CF808191812881A801420F98
:10187000511D27FD5A959A01FA01EE0FFF1FE20F45
:10188000F31FE956F14F21813281820F931FF70137
:101890009183808388819801280F311D87FD3A95B7
:1018A000F901EE0FFF1FE20FF31FE956F14F8081A0
:1018B00086FF21C08881080F111D87FD1A95F80148
:1018C000EE0FFF1FE00FF11FE956F14F808161E03D
:1018D0008F73DF91CF911F910F91FF90EF90DF9069
:1018E000CF90BF90AF9081CD80E49CE9F7019183C8
:1018F00080838FEF8883DF91CF911F910F91FF90AD
:10190000EF90DF90CF90BF90AF900895CF93CFB777
:10191000F89480915D09811123C0ECE9F2E0849193
:10192000E2EEF2E09491E82FF0E0EE0FFF1FE75EA9
:10193000FD4FA591B491EC91E92319F461E085E3A1
:1019400054DD61E085E37EDD8CB580618CBD8CB5B6
:1019500080648CBD61E084E375DD61E083E372DD6A
:1019600080915D098F5F80935D09CFBFCF9108950E
:101970008CB58C608CBD8CB58F7D8CBD6CDBC6CF7F
:101980000F931F93CF93DF938B01EA01AB0141507B
:1019900051094433510508F0E9C02230310508F0FF
:1019A000E5C048E3429FF001439FF00D1124E80F8A
:1019B000F91FE60FF71F81E080836C2F232B09F4BA
:1019C000D2C061E0802F3EDD209749F460E0802F97
:1019D0000CDDCE01DF91CF911F910F910895CF3F84
:1019E000D10511F461E0BFC0F801ED50FD4FE49165
:1019F000E150E23108F0B2C0F0E08827ED5FF24F2D
:101A00008F4F0C94B064150D1C0D210D2B0D350D51
:101A1000AE0D3F0D470D4F0D590D630D6D0D7C0D36
:101A2000860DAE0D900D9A0DA40D84B5806884BD11
:101A3000C7BDD0E0C0E0CDCF84B5806284BDC8BD55
:101A4000F8CF80918000806880938000D0938900D7
:101A5000C0938800EECF80918000806280938000E8
:101A6000D0938B00C0938A00E4CF8091800088607F
:101A700080938000D0938D00C0938C00DACF80914A
:101A8000B00080688093B000C093B300D2CF809143
:101A9000B00080628093B000C093B400CACF809140
:101AA0009000806880939000D0939900C093980034
:101AB000C0CF80919000806280939000D0939B0073
:101AC000C0939A00B6CF8091900088608093900078
:101AD000D0939D00C0939C00ACCF8091A000806803
:101AE0008093A0008091A0008F7B8093A000D09372
:101AF000A900C093A8009DCF8091A0008062809330
:101B0000A000D093AB00C093AA0093CF8091A00017
:101B100088608093A000D093AD00C093AC0089CFC3
:101B200080912001806880932001D0932901C09387
:101B300028017FCF80912001806280932001D09383
:101B40002B01C0932A0175CF80912001886080937A
:101B50002001D0932D01C0932C016BCF60E0C038E1
:101B6000D1050CF03FCF802F40DC63CFC1E0D0E047
:101B700030CFCF93DF93D0E0C0E0CE01D3D988231C
:101B800019F0CE010E94D4012196C13ED105A9F7DA
:101B9000DF91CF9108958FB7F8948091F90D8FBFA1
:101BA00008954F925F926F927F928F929F92AF9221
:101BB000BF92CF92DF92EF92FF92CF93DF93EC012F
:101BC0006C897D898E899F8988889988AA88BB8835
:101BD000CE8CDF8C0D2C000CEE08FF08603127E264
:101BE00072078105910529F01616170618061906C1
:101BF000ACF0A7019601C501B4010E948264DF9197
:101C0000CF91FF90EF90DF90CF90BF90AF909F90DB
:101C10008F907F906F905F904F9008950E94F36136
:101C200020E030E44CE157E40E94E1632B013C01E9
:101C3000488E598E6A8E7B8EC501B4010E94F36175
:101C4000A30192010E9452624B015C01C701B601DF
:101C50000E94F3619B01AC01C501B4010E94526274
:101C60000E944964CCCFFC0111821082138212823F
:101C700015821482178216821086118612861386A8
:101C80001486158616861786108A118A128A138A78
:101C9000108E118E128E138E158E148E178E168E38
:101CA00010A211A212A213A214A215A216A217A288
:101CB00010A611A612A613A614A615A681E090E000
:101CC00097A786A780E197E2A0E0B0E0848B958B90
:101CD000A68BB78B08958EBD00000DB407FEFDCF17
:101CE0008EB50895DF92EF92FF920F931F93CF93DB
:101CF000DF93EC01D62E122F032FF42EE52E60E099
:101D0000888573DB8D2D8068E6DF89878E2DE3DF84
:101D10008F2DE1DF802FDFDF812FDDDF61E0888520
:101D200064DB8985DF91CF911F910F91FF90EF9038
:101D3000DF9008953F924F925F926F927F928F92C1
:101D40009F92AF92BF92CF92DF92EF92FF920F934A
:101D50001F93CF93DF9300D000D0CDB7DEB79E8323
:101D60008D83362E49015A012701380101DE60E0DA
:101D7000ED81FE81808539DB832DADDFED81FE8134
:101D8000818780E0A8DF80E0A6DF80E0A4DF80E03C
:101D9000A2DF61E0ED81FE81808527DB60E0ED81DF
:101DA000FE81808522DB832D96DFED81FE81818798
:101DB00080E091DFF82E80E08EDF082F80E08BDF5F
:101DC000182F80E088DF202F30E050E040E03F29EE
:101DD00069017A01FE2CED2CDC2CCC24C12AFE2CCE
:101DE000ED2CDC2CCC24C82A61E0ED81FE818085BD
:101DF000FCDA8C249D24AE24BF24482059206A207C
:101E00007B20A30192012C253D254E255F25632DC6
:101E10008D819E8167DFED81FE81818526960FB6DB
:101E2000F894DEBF0FBECDBFDF91CF911F910F9110
:101E3000FF90EF90DF90CF90BF90AF909F908F90EA
:101E40007F906F905F904F903F900895EF92FF9238
:101E50000F931F93CF93DF93EC0121E030E040E03C
:101E600050E004C0220F331F441F551F6A95D2F75C
:101E700079018A0160E05EDF8985DF91CF911F9152
:101E80000F91FF90EF900895CF93DF93EC0161E005
:101E90008885D8DA61E08885A8DA6ADD60E088851F
:101EA000A4DA80E018DF898780E015DF80E013DFA7
:101EB00080E011DF80E00FDF61E08885DF91CF9166
:101EC00094CA4F925F926F927F928F929F92BF922D
:101ED000CF92DF92EF92FF920F931F93CF93DF93F6
:101EE000EC017B014A016901B02ECEDF88E0E816E3
:101EF000F10409F48BC10CF065C182E0E816F1042D
:101F000009F47AC184E0E816F10409F47AC1EA948C
:101F1000EF2809F060C188E090E0A0E0B0E0582F21
:101F2000442733272227E12CF12C00E01FE06CE648
:101F3000CE0100DFB40190E080E00E94F16125ED68
:101F400034E045E352E40E94526220E030E04AE788
:101F500054E40E94E16328EB3EE145E05EE30E9429
:101F600052622B013C0126E636E646EA5EE30E9419
:101F7000E16320E030E040E85FE30E947C630E9480
:101F80004E64603180F42CEE31E548E35EE3C3013A
:101F9000B2010E94E16320E030E040E85FE30E948C
:101FA0007C630E944E64862F8F71262F30E050E0B4
:101FB00040E0542F432F322F222722273F714427FE
:101FC0005527282B60E1CE018DDE60E0CE013EDF9B
:101FD0001FE0E12EF12C00E010E023E030E040E0D3
:101FE00050E06CE6CE01A6DE10E7E12EF12C00E019
:101FF00010E020E430E040E050E06CE6CE019ADEF4
:1020000010E8E12EF12C00E010E020E830E040E0A4
:1020100050E06CE6CE018EDEE12C10E8F12E01E0FE
:1020200010E020E030E041E050E06CE6CE0182DEDE
:10203000E12C10E4F12E00E010E020E030E0A901F6
:102040006CE6CE0177DE1FE0E12EF12C00E010E01F
:1020500021E030E040E050E06CE6CE016BDEE12CA8
:10206000F12C8701F39420E032E040E050E06CE690
:10207000CE0160DEE12C10E2F12E00E010E020E065
:1020800030E240E050E06CE6CE0154DE2FEF3FEF4F
:10209000A90163E1CE0126DE2FEF3FEF4FE050E0D4
:1020A00064E1CE011FDE20E137E240E050E065E16F
:1020B000CE0118DEE12CF12C08E010E020E030E049
:1020C00048E050E06CE6CE0135DEE12CF12C04E076
:1020D00010E020E030E044E050E06CE6CE012ADE83
:1020E0001FE0E12EF12C00E010E028E030E040E0BD
:1020F00050E06CE6CE011EDEE12CF12C8701EA9463
:1021000024E630E040E050E06EE6CE0113DEE12C44
:10211000F12C0FEF13E020E030E048E050E06EE6F5
:10212000CE0108DE20E137E240E050E065E1CE017B
:10213000D9DD65E0CE018ADE6BE0CE0187DE0D2CB5
:10214000000CEE08FF08A60133272227E12CF12C12
:1021500001E010E06CE6CE01EDDDBB20F9F062E0BD
:10216000CE0174DEE12CF12C870120E030E044E068
:1021700050E060E7CE01DEDD20E030E042E050E0FC
:1021800060E7CE01D7DDE12CFF24FA940FEF1FEFBB
:1021900020E030E0A90160E7CE01CCDD64E670E02C
:1021A00080E090E0DF91CF911F910F91FF90EF9031
:1021B000DF90CF90BF909F908F907F906F905F90B7
:1021C0004F90ACC980E2E816F10451F144F480E18B
:1021D000E816F10401F180E090E0DC01A0CE80E49B
:1021E000E816F10411F180E8E816F104A1F781E0A6
:1021F00090E0A0E0B0E093CE87E090E0A0E0B0E017
:102200008ECE86E090E0A0E0B0E089CE85E090E060
:10221000A0E0B0E084CE84E090E0A0E0B0E07FCE2B
:1022200083E090E0A0E0B0E07ACE82E090E0A0E031
:10223000B0E075CECF93DF93EC01188A198A1A8A21
:102240001B8A83E590E00E94D10160E086E1CDD851
:1022500083E090E00197F1F78EA58295807F3BDDCA
:102260008FE090E00197F1F761E086E1DF91CF9197
:10227000BCC8CF92DF92EF92FF920F931F93CF9340
:10228000DF938C0183E590E00E94D10160E086E15C
:10229000ACD883E090E00197F1F7F80186A597A507
:1022A00024E0880F991F2A95E1F78F6014DD8FE0F5
:1022B00090E00197F1F7C4E0D0E0C12CD12C760179
:1022C000FE2CED2CDC2CCC2481E005DDC82A2197E6
:1022D000B9F761E086E189D8F801C08AD18AE28A3B
:1022E000F38ADF91CF911F910F91FF90EF90DF90D4
:1022F000CF9008952F923F924F925F926F927F926C
:102300008F929F92AF92BF92CF92DF92EF92FF9205
:102310000F931F93CF93DF9300D01F92CDB7DEB7FB
:102320009C838B834B015A011901FA82E982FA01DD
:10233000408051806280738020E030E0A901C301B9
:10234000B2010E947A64181674F4F601208131817A
:1023500042815381C301B2010E947C63F501608315
:10236000718382839383F8014080518062807380FF
:10237000F401A68DB78D20893189428953890E9445
:1023800045636B017C01EB81FC81E857FF4F808145
:10239000882309F440C0C414D504E604F7040CF4FF
:1023A00040C0F801C082D182E282F3828B819C819D
:1023B000825A9F4F9C838B83FC0180819181A281F3
:1023C000B381F10180839183A283B383E981FA8190
:1023D00080819181892B41F0C401E3DBEB81FC8199
:1023E00060837183828393830F900F900F900F907F
:1023F000DF91CF911F910F91FF90EF90DF90CF90E1
:10240000BF90AF909F908F907F906F905F904F9014
:102410003F902F9008954C145D046E047F040CF0DF
:10242000C0CFF501408051806280738020E030E0B1
:102430004AEF56E4C301B2010E94ED6187FFB1CFBC
:1024400020E030E040E85FE3C301B2010E947D6319
:10245000F5016083718382839383A3CFCF93DF934E
:10246000EC0183B183B1E0E0F1E080818081CE01B5
:102470008A509E4FFEDE83B183B180B180B1CE0120
:102480008A5D9D4FF6DE83B183B180B180B1CE010C
:102490008A5A9D4FDF91CF91ECCE889A0895889803
:1024A00008958E9A08958E980895EBE0F1E080816A
:1024B000886080830895EBE0F1E08081877F8083EE
:1024C0000895149A08951498089560E0FC01878D8A
:1024D0000C94F50960E0FC01818D0C94F50961E034
:1024E000FC01878D0C94F50961E0FC01818D0C9451
:1024F000F509CF93DF93EC01FC01EF56FF4F1082FB
:10250000379781E0808360E0898D0E94F5098BA177
:102510009CA1892B31F060E08F8DDF91CF910C94DD
:10252000F509DF91CF910895CF93DF93EC018FA14F
:102530000E94CD092AA52817190621F48BA5DF9141
:10254000CF91089580E0FBCFCF93DF93EC018DA175
:102550000E94CD092AA52817190621F48BA5DF9121
:10256000CF91089580E0FBCFCF93DF93EC018B8D6B
:10257000FE01E35BFF4F908161E0911101C060E0DB
:102580000E94F50989A1FE01E25BFF4F908199232A
:1025900031F0C15BDF4F988161E0911101C060E0D3
:1025A000DF91CF910C94F509CF93DF93EC018B8DE4
:1025B000FE01E35BFF4F908160E0911101C061E09B
:1025C0000E94F50989A1FE01E25BFF4F90819923EA
:1025D00031F0C15BDF4F988160E0911101C061E093
:1025E000DF91CF910C94F509CF93DF93EC0161E07B
:1025F0008D8D0E94F509FE01E25BFF4F80818823EB
:1026000021F061E08BA10E94F509C157DF4F1882CC
:10261000DF91CF910895CF93DF93EC01FC01E45457
:10262000FC4F1082EE58F1098081811103C0CE0168
:102630004096DADFFE01E15DFC4F8081811104C02C
:10264000CE018E549F4FD0DFFE01E05DFC4F8081B4
:10265000811104C0CE018C5A9E4FC6DF64E670E043
:1026600080E090E0DF91CF910C948E0ACF93DF93BE
:10267000EC0160E08D8D0E94F509FE01E25BFF4FE9
:102680008081882321F060E08BA10E94F509C15769
:10269000DF4F81E08883DF91CF9108958F929F92E1
:1026A000AF92BF92CF92DF92EF92FF920F931F9360
:1026B000CF93FC01E65AFF4F4083518362837383BB
:1026C00034964083518362837383349600831183ED
:1026D00022833383DC01AA59BF4FEC925297CC91ED
:1026E000CC2351F018974C91411152C037FF56C07E
:1026F0001082118212821382DC01AB5ABF4F4D91BE
:102700005D916D917C9113971416150616061706A8
:1027100034F514963C91332311F1C080D180E280CE
:10272000F38046015701F7FE07C08824992454011D
:102730008C189D08AE08BF08481559056A057B0529
:1027400074F4F7FE07C070956095509541955F4F02
:102750006F4F7F4F4083518362837383C32FFC018C
:10276000ED58FF4F108211821282138289579F4FBA
:1027700031E0FC0130838C2FCF911F910F91FF909E
:10278000EF90DF90CF90BF90AF909F908F90089583
:1027900010161106120613060CF4AACFC0E0ACCF37
:1027A0000F931F93CF93DF93EC01062F89A581111F
:1027B0000DC0CE01C9DE182FCE01B6DE0111182FD3
:1027C000812FDF91CF911F910F910895CE01ACDE43
:1027D000182FCE01B9DEF2CFCF93DF93EC01FC01CD
:1027E000ED57FF4F80819181A281B3810196A11D98
:1027F000B11D80839183A283B3833E9681E0808361
:10280000AE01425A5F4FFA0180819181A281B3816A
:102810009E0128573F4FF9012081222309F440C02F
:102820000196A11DB11DFA0180839183A283B38318
:10283000FE01EC56FF4F20813181C90195958795A6
:102840008C0F9D1F32970190F081E02D20FF08C072
:10285000DC012D913C91E20FF31F0190F081E02DFE
:1028600019958BA19CA1892BF9F0FE01E856FF4F29
:1028700020813181C901959587958C0F9D1FCA567E
:10288000DF4FE881F98120FF08C0DC012D913C91E8
:10289000E20FF31F0190F081E02DDF91CF911994A9
:1028A0000197A109B109BFCFDF91CF9108958F9210
:1028B0009F92AF92BF92CF92DF92EF92FF920F93CF
:1028C0001F93CF93DF93EC01FC01ED58FF4F608124
:1028D0007181828193810E94F1616B017C01FE0113
:1028E000E05BFF4F60817181828193810E94F3617F
:1028F0009B01AC0160E074E284E799E40E94E1632B
:102900004B015C01FE01E158FF4F608171818281C2
:1029100093810E94F1619B01AC01C501B4010E9449
:10292000E1634B015C018E0109581F4F20E030E04C
:1029300040E05FE30E945262A70196010E947D631E
:102940000E944E64F8016083718382839383C5582B
:10295000DF4FA5019401C701B6010E947D630E946B
:102960004E64688379838A839B83DF91CF911F9123
:102970000F91FF90EF90DF90CF90BF90AF909F901E
:102980008F9008950F931F93CF93DF93FC01EF5621
:10299000FF4F20812223B9F07E970081118122818F
:1029A0003381389640815181628173810417150704
:1029B0002607370710F1EC019CDDCE01DF91CF91A6
:1029C0001F910F9174CFFC01E957FF4F2081222303
:1029D000A1F0749700811181228133813496408166
:1029E000518162817381041715072607370728F084
:1029F000DF91CF911F910F91EFCEDF91CF911F917A
:102A00000F910895FC01E957FF4F2081222361F0C7
:102A1000749780819181A281B3810196A11DB11D1E
:102A200080839183A283B38308950F931F93FC0146
:102A3000EA59FF4F2081211112C03897008111817E
:102A400022813381349640815181628173810417E0
:102A50001507260737074CF41F910F91A5CDFC01F0
:102A6000E45BFF4F20812111F7CF1F910F917CCDA7
:102A7000AF92BF92CF92DF92EF92FF920F931F938C
:102A8000CF93DF93EC016B015A0179019A01AB01FD
:102A9000B7018881998115DA8C81883531F49501E7
:102AA000A601B7018A819B810CDADF91CF911F913A
:102AB0000F91FF90EF90DF90CF90BF90AF9008956F
:102AC000CF93DF93EC018C818835A9F586EF93E1F4
:102AD0009983888386E294E19B838A8384E792E1E9
:102AE000FE01EE56FF4F9183808332961182108251
:102AF0008FE692E132969183808332961182108222
:102B00008AE692E132969183808332961182108216
:102B100085E692E13296918380833296118210820B
:102B200088819981B1D98C81883589F48A819B818A
:102B3000DF91CF91A9C9893529F486E094E1998381
:102B40008883CCCF8A3551F686E194E1F8CFDF91C6
:102B5000CF910895CF93DF93FC01DC0116968AE0B4
:102B6000ED0119928A95E9F781E0808B818B138AB8
:102B7000128A148A158A168A178A108E8CE291E0BE
:102B8000A0E0B0E084A795A7A6A7B7A780AB91ABBC
:102B9000A2ABB3AB42E350E060E070E044AB55ABB6
:102BA00066AB77AB40AF51AF62AF73AF44AF55AFD9
:102BB00066AF77AFEF01C05CDF4F88839983AA834C
:102BC000BB83249688839983AA83BB83DF01A85B98
:102BD000BF4F48E750E060E070E04D935D936D9328
:102BE0007C93139714961C9211961C9211961C922A
:102BF00011961C92119644E650E060E070E04D930F
:102C00005D936D937C93139714961C9211961D926D
:102C10001D921D921C92139714961C9211961D9250
:102C20001D921D921C92139714961D921D921D9237
:102C30001C92139714961D921D921D921C9213972D
:102C400014961C9211961D921D921D921C92139720
:102C500014961D921D921D921C92139714961D920C
:102C60001D921D921C92139714961D921D921D92F7
:102C70001C92139714961D921D921D921C921397ED
:102C800014961D921D921D921C92139714961D92DC
:102C90001D921D921C92139714961D921D921D92C7
:102CA0001C92139714961C9211961C9211961C92CA
:102CB00011961C9211961C9211961C9211961C92C0
:102CC00011961C9211961C9211961C9211961C92B0
:102CD000128E118E148E138E168E158E10A2178ED4
:102CE00012A211A214A213A216A215A210A617A234
:102CF000119684E792E111969C938E931296119609
:102D00001C921E9212968FE692E111969C938E93DE
:102D1000129611961C921E9212968AE692E11196D4
:102D20009C938E93129611961C921E92129685E693
:102D300092E18D939C93E056FF4F11821082DF91B8
:102D4000CF91089508958FEF9FEF08950895089506
:102D5000089508950895089508950895089508958B
:102D6000089508950895089508950895089508957B
:102D700008950895089580915B0990915C09892BCD
:102D800041F481E090E00E94745C90935C09809330
:102D90005B0980915B0990915C0908950F931F93E3
:102DA000CF93DF938B01E7DFF801C2A1D3A1868D1A
:102DB000978D8530910529F14CF40497B1F090E09E
:102DC00080E0DF91CF911F910F910895863091059A
:102DD00011F10B97A1F76BE070E081E39FE00E9497
:102DE000470BBE0181E39FE009C064E070E088E228
:102DF0009FE00E94470BBE0188E29FE00E94CB0A41
:102E0000DECF65E070E08BE29FE00E94470BBE01E1
:102E10008BE29FE0F3CF66E070E08EE29FE00E94DD
:102E2000470BBE018EE29FE0E9CF80915709909158
:102E30005809892B91F480E790E00E94745CFC01B2
:102E400031969C012B5C3F4F119217AAE217F307B2
:102E5000D9F7909358098093570980915709909119
:102E6000580908954F925F926F927F92AF92BF92EE
:102E7000CF92DF92EF92FF920F931F93CF93DF9346
:102E8000EB01D3DF8C01CAA8DBA84EA45FA468A81D
:102E900079A8AEA0BFA0EE8CFF8C4AA15BA19601E1
:102EA000B7010E94C00CC301B2010E948E0A9601B4
:102EB000A501B701C8010E94C00C90E080E0DF913D
:102EC000CF911F910F91FF90EF90DF90CF90BF9027
:102ED000AF907F906F905F904F900895CF93DF9366
:102EE000EB01A3DF6AA98E8D0E94220A90E080E0A8
:102EF000DF91CF910895CF93DF93EB0196DF2AA95D
:102F00003BA94AA15BA16E8D7F8D0E94C00C90E011
:102F100080E0DF91CF9108958091500990915109FF
:102F2000892BE1F585E390E00E94745CFC0181E06F
:102F300090E0A0E0B0E080839183A283B383848398
:102F40009583A683B78380879187A287B3871586E9
:102F5000148616861786108A118A128A138A148A92
:102F6000158A168A178A108E118E138E128E12A24F
:102F700013A214A215A217A216A210A611A612A699
:102F800013A614A615A616A617A610AA11AA12AA69
:102F900013AA14AAF0935109E093500980915009A3
:102FA000909151090895CF93DF93B6DFEC0185E44A
:102FB0000E94CD0921E0892B09F420E02C8FACDFA1
:102FC000EC0184E40E94CD0921E0892B09F420E082
:102FD0002D8FA2DFEC0183E40E94CD0921E0892B33
:102FE00009F420E02E8F98DFEC0182E40E94CD09E5
:102FF00021E0892B09F420E02F8F8EDFEC0181E4A2
:103000000E94CD0921E0892B09F420E028A384DF68
:10301000EC0180E40E94CD0921E0892B09F420E035
:1030200029A3DF91CF91089577DFBDCF75DFFC0134
:1030300014AA90E080E00895FC0101900020E9F7D7
:103040003197AF01481B590BBC018AEF9DE00C94EE
:1030500032088F929F92AF92BF920F931F93CF939C
:10306000DF93CDB7DEB7A1970FB6F894DEBF0FBEE2
:10307000CDBF19A2423008F44AE08E010F5D1F4F08
:10308000842E912CB12CA12CA50194010E944B639C
:10309000E62FB901CA01EA30ECF4E05DD801EE9305
:1030A0008D01232B242B252B79F790E080E01097BE
:1030B00011F0CD01C1DFA1960FB6F894DEBF0FBEAF
:1030C000CDBFDF91CF911F910F91BF90AF909F9097
:1030D0008F900895E95CE2CFCF92DF92EF92FF925A
:1030E000CF93DF9397FF18C06B017C018DE20E94A4
:1030F0001309EC0166277727CB016C197D098E092E
:103100009F094AE0A6DF8C0F9D1FDF91CF91FF90B2
:10311000EF90DF90CF9008954AE0DF91CF91FF903C
:10312000EF90DF90CF9095CFBC01990F880B990B52
:10313000D3CF82CF882319F089EA98E0FACF82EAC8
:1031400098E0FCCF2F923F924F925F926F927F92C6
:103150008F929F92AF92BF92CF92DF92EF92FF92A7
:103160000F931F93CF93DF93CDB7DEB762970FB660
:10317000F894DEBF0FBECDBF1C017C012EE5E20E30
:10318000F11CD7014D915D916D917C91FC01EE593F
:10319000FF4FFE87ED8780819181A281B38141013C
:1031A000F6E68F0E911CF4012081B2965F01810139
:1031B00007571F4F222309F440C06101FCE4CF0EE2
:1031C000D11CF6012081F501208321E0F801208344
:1031D000411551056105710591F42081F101E15816
:1031E000FF4F6F01F101222309F44FC040AC51ACF5
:1031F00062AC73ACF60140825182628273829101AB
:10320000265A3F4F3A8B298BF901408051806280CA
:103210007380235D3F4F5901481659066A067B06A5
:10322000CCF5481759076A077B07F4F1D4018C9154
:1032300081113AC0D5011C9240C121E048175907BD
:103240006A077B070CF020E0F50120835A016B012F
:1032500077FF07C0AA24BB246501A41AB50AC60AD1
:10326000D70A2C013D01B7FF07C044245524320181
:10327000481A590A6A0A7B0A21E0A414B504C60454
:10328000D7040CF0A3CF20E0A1CF44A855A866A88E
:1032900077A8B0CF84159505A605B7053CF6841729
:1032A0009507A607B70714F6F5018081882311F268
:1032B000D4018C9181110DC0F40180818111BACFAC
:1032C000D8016C9181E06827C1016ADA8111B2CF1F
:1032D00005C060E0C10164DA8111EECFD1019C9696
:1032E0002D913D914D915C919F9729833A834B831A
:1032F0005C83F8018081811105C1F101E05CFF4F21
:1033000080819181A281B3818D839E83AF83B887B1
:10331000D101D4962D913D914D915C91D7972987FC
:103320003A874B875C87ED85FE8580819181A281FC
:10333000B381F701C080D180E280F380E989FA8906
:103340004081518162817381F101E557FF4F108205
:10335000319610823101FDE86F0E711CF30110826D
:10336000910122573F4FF9011082329610824C0191
:103370005D01841A950AA60AB70AB7FE08C0B09480
:10338000A09490948094811C911CA11CB11C48179E
:1033900059076A077B070CF0C9C0C41AD50AE60AA8
:1033A000F70AD501C401B595A795979587958D879F
:1033B0009E87AF87B88B810100571F4F8C149D04E7
:1033C000AE04BF0408F0B7C0D101DC960D90BC91EB
:1033D000A02DBA8BA98B81E0F9018083D8018C9351
:1033E000F1018489882309F45CC00E94BF0AD101DD
:1033F00052960D911C91012E000C220B330B601B79
:10340000710B820B930B693E73408105910508F4A3
:1034100048C00E94BF0AF101738B628B80EB93E07E
:1034200088DE84EB93E085DE60E070E0CB0154DE63
:103430008AEB93E07EDEC701B6014EDE80EC93E0BE
:1034400078DEC501B40148DE86EC93E072DE4AE026
:103450006D857E858F859889FCDD8DEC93E069DE36
:103460006D817E818F81988537DE83ED93E061DE0B
:1034700069857A858B859C852FDE89ED93E059DE01
:1034800069817A818B819C8127DE8FED93E051DE0B
:1034900081E497E04EDE89899A8946DE85EA94E0E8
:1034A00048DEF101E158FF4F29893A89C901B0E0AE
:1034B000A0E080839183A283B38360E0C10170D9CF
:1034C000882339F0F101E25AFF4F108211821282F3
:1034D000138262960FB6F894DEBF0FBECDBFDF91A8
:1034E000CF911F910F91FF90EF90DF90CF90BF9001
:1034F000AF909F908F907F906F905F904F903F9094
:103500002F900895F10180A991A9A2A9B3A92981B9
:103510003A814B815C8182179307A407B5070CF0B1
:10352000ECCE89839A83AB83BC83E7CEC81AD90AD1
:10353000EA0AFB0A36CF2D853E854F8558892C1522
:103540003D054E055F0508F450C08D819E81AF8119
:10355000B8858C159D05AE05BF0544F4A981BA81D7
:103560001196BA8BA98B81E0F30137CFC701B60161
:103570000E94F3612B013C016D817E818F819885D2
:103580000E94F3619B01AC01C301B2010E94E1639F
:103590002B013C0169817A818B819C8129853A8547
:1035A0004B855C85621B730B840B950B0E94F3614A
:1035B0009B01AC01C301B2010E9452622B013C018C
:1035C00069857A858B859C850E94F3619B01AC019E
:1035D000C301B2010E947D630E9449647A8B698BAA
:1035E00081E0F101E557FF4FF8CED501C4012D81EF
:1035F0003E814F815885821B930BA40BB50BC816D7
:10360000D906EA06FB065CF449815A814E5F5F4F9A
:103610005A8B498B81E0F101E357FF4FDECEC501A4
:10362000B4016C197D098E099F090E94F3612B0179
:103630003C016D817E818F8198850E94F3619B01A1
:10364000AC01C301B2010E94E1632B013C0169811D
:103650007A818B819C8129853A854B855C85621BAB
:10366000730B840B950B0E94F3619B01AC01C301AA
:10367000B2010E9452622B013C0169857A858B85DB
:103680009C850E94F3619B01AC01C301B2010E94C1
:103690007D630E9449647A8B698B81E0F101E45774
:1036A000FF4F9BCECF93DF93EC0185EE93E041DD9E
:1036B0006AA17BA18CA19DA10FDD85EA94E0DF9139
:1036C000CF9137CD0F931F93CF93DF938C01EB01F5
:1036D00082E993E02EDD81E497E02BDDF80184811F
:1036E0000E941309CE0120DD17DCDF91CF911F91DD
:1036F0000F91D8CFEF92FF920F931F93CF93DF9349
:10370000182F092F7B016115710569F50E94CD09FC
:1037100031E020E0019709F030E0C32FD22F82E0A2
:10372000E816F10408F045C088EE93E002DD81E47C
:1037300097E0FFDC8CEE93E0FCDC812F902FF4DC33
:1037400081E497E0F6DC8EE499E0F3DCCE01ECDC7A
:10375000E3DBA8DF90E080E0DF91CF911F910F9134
:10376000FF90EF900895D0E0C0E061307105B9F6A8
:10377000812F163310F08AEC810F20917B00982F57
:103780009870277F922B90937B0087708064809342
:103790007C0080917A00806480937A0080917A0026
:1037A00086FDFCCF80917800C0917900DC2FC82F76
:1037B000B6CF81E090E0D0CF0F931F93CF93DF93EC
:1037C000FC012081318121153105C1F1EC01822FED
:1037D0000E94CD0921E0892B09F420E02B876A851E
:1037E000261701F11E821F82188619860E811F81FD
:1037F000288539858A819B81AC81BD81081719078D
:103800002A073B07DCF081E0682788810E94F509E0
:103810000CDB70E060E088819981DF91CF911F918E
:103820000F9168CF8E819F81A885B9850196A11DD2
:10383000B11D8E839F83A887B987D8CFDF91CF91A1
:103840001F910F910895CF93DF93EB01EEDA6AA9F0
:103850007BA98E8D9F8D4EDF90E080E0DF91CF9130
:103860000895CF92DF92EF92FF92CF93DF93EB0117
:10387000CB010E949207882351F1FE01EE0FFF1F3A
:10388000EE0FFF1FEB58F54FC080D180E280F38030
:103890008EEE93E04EDC81E497E04BDC8CEE93E01F
:1038A00048DCCE0141DC81E497E043DC8EE499E022
:1038B00040DCC701B60110DC2FDBF4DE90E080E0D5
:1038C000DF91CF91FF90EF90DF90CF90089582EF3E
:1038D00093E02FDCF3CF0F931F93CF93DF938C01F3
:1038E000D0E0C0E0CE010E949207882319F0BE010B
:1038F000C801B7DF2196C13ED105A1F7DF91CF9175
:103900001F910F91089584E194E013DC82E492E02A
:1039100010DC8AE092E00DDC89E194E00ADCFCDA5C
:10392000C1DE90E080E00895CF93DF93EC0183E265
:1039300094E0FFDB87E294E0FCDB8C8DFBDB8BE229
:1039400094E0F7DB8D8DF6DB8FE294E0F2DB8E8D79
:10395000F1DB83E394E0EDDB8F8DECDB87E394E038
:10396000E8DB88A1E7DB8BE394E0E3DB89A1E2DB22
:10397000CE01DF91CF9196CECFDAD6CF8FE394E010
:10398000D8DBCADA10DBC8DACFDF4FDA70E060E0EC
:1039900088E090E0AFDE49DA70E060E089E090E036
:1039A000A9DE43DA70E060E08AE090E0A3DE3DDA71
:1039B00070E060E08DE090E09DDE90E080E00895B2
:1039C0004F925F926F927F928F929F92AF92BF922F
:1039D000CF92DF92EF92FF920F931F93CF936B01E1
:1039E0007C01742EAC019B010E947E64882391F0BF
:1039F00086E494E0CF911F910F91FF90EF90DF90BC
:103A0000CF90BF90AF909F908F907F906F905F907E
:103A10004F9012CB46015701E894B7F82FEF3FEFD4
:103A20004FE75FE7C501B4010E947E6481110DC0BC
:103A30002FEF3FEF4FE75FE7C501B4010E94ED6153
:103A400018161CF48AE494E0D5CF2FEF3FEF4FE730
:103A50005FE4C701B6010E947A6418161CF48EE474
:103A600094E0C8CF2FEF3FEF4FE75FECC701B601FF
:103A70000E94ED6187FDF3CF20E030E0A901C7018E
:103A8000B6010E94ED6110E000E087FF08C08DE202
:103A90000E9413098C01F7FAF094F7F8F094C0E053
:103AA00060E070E080E09FE37C1641F020E030E0D1
:103AB00040E251E40E94E163CF5FF6CFA701960197
:103AC0000E947D632B013C010E944E644B015C010E
:103AD0004AE0BFDA7C01E00EF11ECC23A9F1C5015A
:103AE000B4010E94F1619B01AC01C301B2010E94CB
:103AF0007C634B015C018EE20E941309E80EF91E03
:103B0000C15010F120E030E040E251E4C501B401C1
:103B10000E9452622B013C010E944E644B01B12C69
:103B2000A12C4AE0C501B40194DAE80EF91EC501E2
:103B3000B4010E94F1619B01AC01C301B2010E947A
:103B40007C634B015C01DCCFC701CF911F910F91CA
:103B5000FF90EF90DF90CF90BF90AF909F908F90AD
:103B60007F906F905F904F9008958F929F92AF9249
:103B7000BF92CF92DF92EF92FF920F931F93CF935A
:103B8000DF93EC0182E592E0D4DA87E694E0D1DAC3
:103B90006E018AE0C81A8EEFD80AC6010E94D10DC4
:103BA0000E94F3614B015C01FE01E15BFC4F60810F
:103BB0007181828193810E94F3619B01AC01C501F7
:103BC000B4010E94E16342E0FBDE87E794E0B1DAF2
:103BD0007E01EAEDEE1AEDEFFE0AC7010E94D10D5B
:103BE0000E94F3614B015C01FE01ED5AFC4F6081C4
:103BF0007181828193810E94F3619B01AC01C501B7
:103C0000B4010E94E16342E0DBDE87E894E091DAF0
:103C10008E010A5A1D4FC8010E94D10D0E94F36106
:103C20004B015C01C95ADC4F688179818A819B8193
:103C30000E94F3619B01AC01C501B4010E94E163E4
:103C400042E0BEDE69D92EDD8EE492E072DA87E6CC
:103C500094E06FDAF601A68DB78D2089318942890B
:103C600053890E94456338DA87E794E062DAF70106
:103C7000A68DB78D20893189428953890E94456379
:103C80002BDA87E894E055DAF801A68DB78D208904
:103C90003189428953890E9445631EDA3DD9DF91FB
:103CA000CF911F910F91FF90EF90DF90CF90BF9039
:103CB000AF909F908F90F6CCCF92DF92EF92FF92D1
:103CC000CF93DF93EC0188819981AA81BB8118167B
:103CD00019061A061B0644F081E090E0A0E0B0E06F
:103CE00088839983AA83BB838C819D81AE81BF81A8
:103CF000181619061A061B0644F081E090E0A0E0B1
:103D0000B0E08C839D83AE83BF8388859985AA8527
:103D1000BB85181619061A061B0644F081E090E0D0
:103D2000A0E0B0E088879987AA87BB8782E594E006
:103D300000DA87E694E0FDD96E857F8588899989C8
:103D40000E94F3616B017C01688179818A819B818A
:103D50000E94F3619B01AC01C701B6010E94E163BF
:103D600042E02EDE87E794E0E4D96A897B898C897A
:103D70009D890E94F3616B017C016C817D818E8144
:103D80009F810E94F3619B01AC01C701B6010E94B3
:103D9000E16342E015DE87E894E0CBD96E897F8944
:103DA000888D998D0E94F3616B017C01688579850E
:103DB0008A859B850E94F3619B01AC01C701B60116
:103DC0000E94E16342E0FCDDCE01DF91CF91FF90E4
:103DD000EF90DF90CF9066CC9FD86EDF90E080E0D0
:103DE0000895FC0180819181009711F00C94105D81
:103DF00008950C94105D0C94105D0C94105D0C945F
:103E0000105D0C94105D0C94105D0C94105D0C947E
:103E1000105D0C94105D0C94105D0C94105D0C946E
:103E2000105D0C94105D0C94105D0C94105D0C945E
:103E3000105D0C94105D0C94105D0C94105D0C944E
:103E4000105D0C94105D0C94105D0C94105DCF927D
:103E5000DF92EF92FF920F931F93CF93DF938C012A
:103E60006A017B01EC01CC0FDD1F642FCE010E94A3
:103E700011639927F7FC9A958F2D7E2D6D2DCE011C
:103E800001960E9411630D5811090330110588F441
:103E9000B701992777FD9095892FCE0144960E940E
:103EA00011636F2D772788279927CE0145960E94A9
:103EB000116390E080E0DF91CF911F910F91FF900F
:103EC000EF90DF90CF9008954F925F926F927F9224
:103ED0008F929F92AF92BF92CF92DF92EF92FF921A
:103EE0000F931F93CF93DF938C01EC01CC0FDD1F59
:103EF000CE010E940963882E912CB12CA12CCE01F9
:103F000001960E940963C82ED12CF12CE12C0D588A
:103F100011090330110508F05AC0CE0144960E94E1
:103F20000963482E512C712C612CCE0145960E94BC
:103F30000963082F10E030E020E08FEF48165104AD
:103F40006104710429F50F3F11052105310501F5C3
:103F50008FEF88169104A104B104C9F58FEFC8163C
:103F6000D104E104F10499F56FEF7FEFCB01DF910C
:103F7000CF911F910F91FF90EF90DF90CF90BF9066
:103F8000AF909F908F907F906F905F904F9008952B
:103F900000381105210531053CF7FE2CED2CDC2CF9
:103FA000CC24C701B601680D791D8A1D9B1D320105
:103FB00055244424640D751D861D971D302F22271E
:103FC00011270027600F711F821F931FD0CF00E0C1
:103FD00010E09801412C512C320180E8C816D10420
:103FE000E104F104D4F2C0CFEF92FF920F931F933C
:103FF000CF93DF938091550990915609892B51F504
:1040000086E090E00E94745C7C0190E080E05CDFE0
:104010001616170654F1C7010E94B90DD0E0C0E092
:10402000CE010E949207882369F0FE01EE0FFF1F68
:10403000EE0FFF1FEB58F54F408151816281738174
:10404000CE0105DF2196C639D10551F7F092560908
:10405000E09255098091550990915609DF91CF91D1
:104060001F910F91FF90EF90089583E090E02CDF77
:10407000613071058105910531F505E71AE0D0E061
:10408000C0E0CE010E9492078823B1F0CE011CDF70
:10409000F80160837183828393836F3F7F4F8F4FDB
:1040A0009F4F51F4CE010E94D401F801408151810B
:1040B00062817381CE01CBDE21960C5F1F4FC13E22
:1040C000D105F9F6C3CFC7010E94B90DBFCFCF927A
:1040D000DF92EF92FF920F931F93CF93DF937C01B8
:1040E0006B018A01E90180DFF601EE0FFF1FEE0F81
:1040F000FF1FEB58F54F80819181F70191838083F9
:1041000073DF000F111F000F111FF801EB58F54F5F
:1041100081E04081518162817381413051056105A7
:10412000710509F080E0F70182875EDFCC0FDD1FAB
:10413000CC0FDD1FCB58D54F88819981AA81BB81D7
:10414000F70182839383A483B58316821782108636
:104150001186DF91CF911F910F91FF90EF90DF902B
:10416000CF900895CF93DF93EC012AEC30E04BEC35
:1041700050E069EC70E0ABDF2EEC30E04FEC50E04B
:104180006DEC70E0CE010C96A2DF24ED30E045ED41
:1041900050E063ED70E0CE01489699DF28ED30E005
:1041A00049ED50E067ED70E0CE01849690DF2EED92
:1041B00030E04FED50E06DED70E0CE01C096DF9144
:1041C000CF9185CFCF93DF938091590990915A0970
:1041D000892BA1F48CE390E00E94745CEC011982BD
:1041E00018821D861C86198E188E1DA21CA219AA63
:1041F00018AAB8DFD0935A09C09359098091590978
:1042000090915A09DF91CF9108952F923F924F924A
:104210005F926F927F928F929F92AF92BF92CF9256
:10422000DF92EF92FF920F931F93CF93DF93EC01F6
:10423000DBDEFE01EB57FC4F8091310C9091320C8C
:1042400091838083D1DEFE01E957FC4F8091350CCC
:104250009091360C91838083C7DEFE01E757FC4FB7
:104260008091390C90913A0C91838083BDDE8E0150
:1042700005571C4F6091590C70915A0C80915B0C42
:1042800090915C0C0E94F361F801608371838283DA
:104290009383AADE1E01F1E72F1AFCEF3F0A60911B
:1042A0005D0C70915E0C80915F0C9091600C0E948F
:1042B000F361F101608371838283938395DE20E053
:1042C00030E048EC52E4F801608171818281938191
:1042D0000E94E1632B013C0120E030E048EC52E415
:1042E000F10160817181828193810E94E1634B01C0
:1042F0005C016091610C7091620C8091630C9091F3
:10430000640C0E94F36120E030E048EC52E40E942B
:10431000E1636B017C012AE037ED43E25CE3C3011A
:10432000B2010E947A6418160CF02BC120E030E034
:1043300046EC52E4C301B2010E94ED6187FD06C064
:10434000412C512C56EC652E52E4752EF80140821A
:104350005182628273822AE037ED43E25CE3C50159
:10436000B4010E947A6418160CF014C120E030E009
:1043700046EC52E4C501B4010E94ED6187FD06C020
:10438000812C912C36ECA32E32E4B32EF1018082E5
:104390009182A282B3822AE037ED43E25CE3C70157
:1043A000B6010E947A6418160CF0FDC020E030E0DF
:1043B00046EC52E4C701B6010E94ED6187FD06C0DC
:1043C000C12CD12C96ECE92E92E4F92EFE01ED568B
:1043D000FC4FC082D182E282F38206DE8091190C0A
:1043E00090911A0CFE01E656FC4F91838083FCDD10
:1043F00080911D0C90911E0CFE01E456FC4F9183A0
:104400008083F2DD8091210C9091220CFE01E25616
:10441000FC4F91838083E8DD8091410C9091420CA8
:10442000A091430CB091440CFE01E056FC4F8083F8
:104430009183A283B383D8DD8091450C9091460C83
:10444000A091470CB091480CFE01EC55FC4F8083C5
:104450009183A283B383C8DD8091490C90914A0C6B
:10446000A0914B0CB0914C0CFE01E855FC4F8083A1
:104470009183A283B383B8DD8091690C90916A0C1B
:10448000FE01E455FC4F91838083AEDD80916D0C7D
:1044900090916E0CFE01E255FC4F91838083A4DD68
:1044A0008091710C9091720CFE01E055FC4F91834C
:1044B00080839ADD8091810C9091820CFE01EE54F4
:1044C000FC4F9183808390DD8091850C9091860CC8
:1044D000FE01EC54FC4F9183808386DD8091890C32
:1044E00090918A0CFE01EA54FC4F918380837CDD1D
:1044F0008091090C90910A0CA0910B0CB0910C0CBE
:10450000FE01E956FC4F0197A105B10509F054C021
:1045100081E0808369DD80910D0C90910E0CA0915B
:104520000F0CB091100CFE01E856FC4F0197A1054D
:10453000B10509F043C081E0808356DD8091110C04
:104540009091120CA091130CB091140CC756DC4F33
:104550000197A105B105A1F581E08883DF91CF9195
:104560001F910F91FF90EF90DF90CF90BF90AF9091
:104570009F908F907F906F905F904F903F902F9083
:1045800008954AE0442E47ED542E43E2642E4CE356
:10459000742EDCCE2AE0822E27ED922E23E2A22E6C
:1045A0002CE3B22EF3CE8AE0C82E87EDD82E83E21C
:1045B000E82E8CE3F82E0ACF1082ACCF1082BDCF4C
:1045C0001882CCCF2F923F924F925F926F927F9240
:1045D0008F929F92AF92BF92CF92DF92EF92FF9213
:1045E0000F931F93CF93DF93CDB7DEB76F970FB6BF
:1045F000F894DEBF0FBECDBF9B8F8A8FF5DCEA8DAE
:10460000FB8DEF55FD4F81E04091410B5091420BE6
:104610006091430B7091440B452B462B472B09F4BB
:1046200080E08083E1DCEA8DFB8DEE55FD4F81E07B
:104630004091450B5091460B6091470B7091480B90
:10464000452B462B472B09F480E08083CDDCEA8D97
:10465000FB8DED55FD4F81E04091490B50914A0B88
:1046600060914B0B70914C0B452B462B472B09F45B
:1046700080E08083B9DC8091910B9091920BA091A6
:10468000930BB091940BEA8DFB8DEC55FD4F80831D
:104690009183A283B383A8DC8091950B9091960BB4
:1046A000A091970BB091980BEA8DFB8DE855FD4FCB
:1046B00080839183A283B38397DC8091990B90913F
:1046C0009A0BA0919B0BB0919C0BEA8DFB8DE4554E
:1046D000FD4F80839183A283B38386DC8091910B0D
:1046E0009091920BA091930BB091940BEA8DFB8D5E
:1046F000E055FD4F80839183A283B38375DC809165
:10470000950B9091960BA091970BB091980BEA8D19
:10471000FB8DEC54FD4F80839183A283B38364DCD3
:1047200080919D0B90919E0BA0919F0BB091A00B3F
:10473000EA8DFB8DE854FD4F80839183A283B38380
:1047400053DC8091690B90916A0BA0916B0BB09137
:104750006C0BEA8DFB8DE853FD4F80839183A28320
:10476000B38342DC80916D0B90916E0BA0916F0B27
:10477000B091700BEA8DFB8DE453FD4F80839183E4
:10478000A283B38331DC8091710B9091720BA09165
:10479000730BB091740BEA8DFB8DE053FD4F80835A
:1047A0009183A283B38320DC8091690B90916A0B83
:1047B000A0916B0BB0916C0BEA8DFB8DEC52FD4F11
:1047C00080839183A283B3830FDC80916D0B9091E2
:1047D0006E0BA0916F0BB091700BEA8DFB8DE852C0
:1047E000FD4F80839183A283B383FEDB8091750BA1
:1047F0009091760BA091770BB091780BEA8DFB8DA1
:10480000E452FD4F80839183A283B383EDDB8091DB
:10481000790B90917A0BA0917B0BB0917C0BEA8D78
:10482000FB8DE052FD4F80839183A283B383DCDB59
:1048300080917D0B90917E0BA0917F0BB091800BAE
:10484000EA8DFB8DEC51FD4F80839183A283B3836E
:10485000CBDB8091810B9091820BA091830BB09167
:10486000840BEA8DFB8DE851FD4F80839183A283F9
:10487000B383BADB8091190B90911A0BA0911B0B9B
:10488000B0911C0BEA8DFB8DE451FD4F8083918329
:10489000A283B383A9DB80911D0B90911E0BA09185
:1048A0001F0BB091200BEA8DFB8DE051FD4F8083F3
:1048B0009183A283B38398DB8091210B9091220B8B
:1048C000A091230BB091240BEA8DFB8DEC50FD4F92
:1048D00080839183A283B38387DB8091190B9091AE
:1048E0001A0BA0911B0BB0911C0BEA8DFB8DE850AD
:1048F000FD4F80839183A283B38376DB80911D0B70
:1049000090911E0BA0911F0BB091200BEA8DFB8D97
:10491000E450FD4F80839183A283B38365DB809154
:10492000250B9091260BA091270BB091280BEA8DB7
:10493000FB8DFD5F80839183A283B38355DBEA8D7A
:10494000FB8DEC5FFC4F81E02091F10A3091F20A7F
:104950002130310509F080E0808346DBEA8DFB8D54
:10496000EB5FFC4F81E02091F50A3091F60A21308F
:10497000310509F080E0808337DBEA8DFB8DEA5F4B
:10498000FC4F81E02091F90A3091FA0A213031057B
:1049900009F080E0808328DBEA8DFB8DE65CFC4F2C
:1049A00081E04091C90A5091CA0A6091CB0A709186
:1049B000CC0A452B462B472B09F480E0808314DB7F
:1049C000EA8DFB8DE55CFC4F81E04091CD0A509172
:1049D000CE0A6091CF0A7091D00A452B462B472B07
:1049E00009F480E0808300DBEA8DFB8DE45CFC4F02
:1049F00081E04091D10A5091D20A6091D30A70911E
:104A0000D40A452B462B472B09F480E08083ECDA4F
:104A1000EA8DFB8DE35CFC4F81E04091A10B50914E
:104A2000A20B6091A30B7091A40B452B462B472B37
:104A300009F480E08083D8DAEA8DFB8DE25CFC4FDC
:104A400081E04091A50B5091A60B6091A70B70914E
:104A5000A80B452B462B472B09F480E08083C4DA52
:104A6000EA8DFB8DE15CFC4F81E04091A90B5091F8
:104A7000AA0B6091AB0B7091AC0B452B462B472BCF
:104A800009F480E08083B0DAEA8DFB8DE05CFC4FB6
:104A900081E02091D90A3091DA0A2130310509F0FC
:104AA00080E08083A1DAEA8DFB8DEF5BFC4F81E033
:104AB0002091DD0A3091DE0A2130310509F080E0D5
:104AC000808392DAEA8DFB8DEE5BFC4F81E02091D2
:104AD000E10A3091E20A2130310509F080E080835B
:104AE00083DA8091A10A9091A20AA091A30AB091C1
:104AF000A40AEA8DFB8DED5BFC4F80839183A2833A
:104B0000B38372DA8091A50A9091A60AA091A70AB0
:104B1000B091A80AEA8DFB8DE95BFC4F80839183FD
:104B2000A283B38361DA8091A90A9091AA0AA09125
:104B3000AB0AB091AC0AEA8DFB8DE55BFC4F80833C
:104B40009183A283B38350DAEA8DFB8DE25DFC4F43
:104B500081E04091B10A5091B20A6091B30A70911C
:104B6000B40A452B462B472B09F480E080833CDABE
:104B7000EA8DFB8DE15DFC4F81E04091B50A5091DB
:104B8000B60A6091B70A7091B80A452B462B472B9D
:104B900009F480E0808328DAEA8DFB8DE05DFC4F2C
:104BA00081E04091B90A5091BA0A6091BB0A7091B4
:104BB000BC0A452B462B472B09F480E0808314DA8E
:104BC0008091A90C9091AA0CA091AB0CB091AC0C67
:104BD000EA8DFB8DE95FFC4F80839183A283B383D1
:104BE00003DA8091AD0C9091AE0CA091AF0CB09116
:104BF000B00CEA8DFB8DE55FFC4F80839183A2832F
:104C0000B383F2D98091B10C9091B20CA091B30C06
:104C1000B091B40CEA8DFB8DE15FFC4F80839183F2
:104C2000A283B383E1D9EA8DFB8DEF5CFC4F81E079
:104C30002091090B30910A0B2130310509F080E0F9
:104C40008083EA8DFB8DEE5CFC4F1082EA8DFB8D3C
:104C5000ED5CFC4F1082C8D9EA8DFB8DEC5CFC4FFB
:104C600081E02091050B3091060B2130310509F0D0
:104C700080E08083EA8DFB8DEB5CFC4F1082EA8D37
:104C8000FB8DEA5CFC4F1082AFD9EA8DFB8DE95CAD
:104C9000FC4F81E02091290B30912A0B2130310506
:104CA00009F080E08083A0D9EA8DFB8DE85CFC4FA1
:104CB00081E020912D0B30912E0B2130310509F030
:104CC00080E0808391D9EA8DFB8DE75CFC4F81E029
:104CD0002091310B3091320B2130310509F080E009
:104CE000808382D9EA8DFB8DED5EFC4F81E02091BF
:104CF000B90C3091BA0C2130310509F080E0808385
:104D000073D9EA8DFB8DEC5EFC4F81E02091BD0CE8
:104D10003091BE0C2130310509F080E0808364D9E8
:104D2000EA8DFB8DEB5EFC4F81E02091C10C309150
:104D3000C20C2130310509F080E0808355D9809183
:104D4000F90C9091FA0CA091FB0CB091FC0CEA8D3F
:104D5000FB8DEA5EFC4F80839183A283B38344D9A9
:104D60008091FD0C9091FE0CA091FF0CB091000D74
:104D7000EA8DFB8DE65EFC4F80839183A283B38333
:104D800033D98091010D9091020DA091030DB09146
:104D9000040DEA8DFB8DE25EFC4F80839183A2833C
:104DA000B38322D98091290D90912A0DA0912B0DCA
:104DB000B0912C0DEA8DFB8DEE5DFC4F80839183CD
:104DC000A283B38311D98091290D90912A0DA091CE
:104DD0002B0DB0912C0DEA8DFB8DEA5DFC4F80838D
:104DE0009183A283B38300D98091290D90912A0DDC
:104DF000A0912B0DB0912C0DEA8DFB8DE65DFC4F43
:104E000080839183A283B383EFD80A8D1B8D015BCE
:104E10001C4F8091510B9091520BA091530BB0916C
:104E2000540BF80180839183A283B383DDD8EA8C8D
:104E3000FB8CFDEAEF1AFCEFFF0A8091550B909175
:104E4000560BA091570BB091580BF70180839183BB
:104E5000A283B383C9D88091590B90915A0BA0912A
:104E60005B0BB0915C0BCA8CDB8CF9EACF1AFCEFC0
:104E7000DF0AF60180839183A283B383F801408126
:104E8000518162817381141615061606170644F0C7
:104E900041E050E060E070E04083518362837383BF
:104EA000F70140815181628173811416150616063F
:104EB000170644F041E050E060E070E04083518329
:104EC00062837383181619061A061B064CF081E0DC
:104ED00090E0A0E0B0E0F60180839183A283B383E9
:104EE0000E948C17FC01D6018D909D90AD90BC90D6
:104EF000D7014D915D916D917C91D8010D911D91DE
:104F00002D913C9100831183228333834483558305
:104F10006683778380869186A286B386EA8DFB8D31
:104F20007096FA83E983EA8DFB8DED5EFC4F8080FD
:104F30008B82EA8DFB8DE95FFC4F4080518062805F
:104F40007380EA8DFB8DE95CFC4F90809A86EA8D38
:104F5000FB8DE05CFC4FA080AC82EA8DFB8DEF5CAA
:104F6000FC4FB080BD82EA8DFB8DEC5CFC4F208154
:104F70002E83EA8DFB8DE35CFC4F80818E87EA8D6A
:104F8000FB8DE65CFC4F90819A8BEA8DFB8DEC5F8C
:104F9000FC4F2080EA8DFB8DEF55FD4F3080EA8D70
:104FA000FB8DED5BFC4F80809180A280B380EA8D09
:104FB000FB8DE451FD4F80819181A281B381EA8D07
:104FC000FB8DE052FD4FC080D180E280F380EA8DFE
:104FD000FB8DE853FD4F4081518162817381EA8DE1
:104FE000FB8DEC55FD4F0081118122813381EA8DCB
:104FF000FB8D04AF15AF26AF37AFEC5BFF4F40839F
:10500000518362837383EA8DFB8DE05BFF4F808366
:105010009183A283B383EA8DFB8DE05CFF4F008315
:10502000118322833383EA8DFB8DE85BFF4F40833E
:10503000518362837383EA8DFB8DEC5AFF4F80832B
:105040009183A283B383EA8DFB8DE45BFF4FC08223
:10505000D182E282F382EA8DFB8DE85AFF4F808293
:105060009182A282B382EA8DFB8DE45AFF4F308297
:10507000EA8DFB8DE35AFF4F2082EA89AA8DBB8D12
:10508000D996EC93D997FE85DA96FC93DA978C80C3
:10509000DB968C9280E490E0A0E0B0E0EA8DFB8D9E
:1050A000E05AFF4F80839183A283B383EA8DFB8D07
:1050B000E25AFF4F9E809082EA8DFB8DE15AFF4FAE
:1050C000AD80A082EA8DFB8DEC59FF4FBA84B0828F
:1050D000EA8DFB8DEB59FF4F4082518262827382D1
:1050E000EA8DFB8DE759FF4F2B812083AA8DBB8D65
:1050F00099968D919C919A978633910509F0E6C215
:105100008DE492E1FD01EE55FF4F9183808332964D
:10511000118210828FE492E13696918380833296D9
:1051200011821082EA8DFB8D87A590A94A97D1F450
:1051300081E692E1EA55FF4F91838083EA8DFB8DF2
:10514000E855FF4F1182108283E692E1EA8DFB8DD4
:10515000E255FF4F91838083EA8DFB8DE055FF4F31
:10516000118210820A8D1B8D0E541F4FEA8DFB8D0C
:10517000EC5EFC4F80808B82EA8DFB8DE55FFC4FFF
:1051800080819181A281B3818A879B87AC87BD870B
:10519000EA8DFB8DE85CFC4F90819C83EA8DFB8D52
:1051A000EF5BFC4FA081AD83EA8DFB8DEE5CFC4F85
:1051B000B081BE83EA8DFB8DEB5CFC4F80808E86D8
:1051C000EA8DFB8DE25CFC4F2080EA8DFB8DE55C77
:1051D000FC4F3080EA8DFB8DEB5FFC4F3081EA8D18
:1051E000FB8DEE55FD4F2081EA8DFB8DE95BFC4F79
:1051F0004081518162817381EA8DFB8DE051FD4FC9
:1052000080819181A281B381EA8DFB8DEC51FD4FAC
:10521000C080D180E280F380EA8DFB8DE453FD4FA6
:1052200080809180A280B380EA8DFB8DE855FD4F90
:105230004080518062807380F80144A655A666A61E
:1052400077A684AA95AAA6AAB7AAEA8DFB8DEE50E6
:10525000FF4F80839183A283B383F80140AA51AAB0
:1052600062AA73AA80AE91AEA2AEB3AEEA8DFB8DF8
:10527000EA50FF4F80839183A283B383D801DC96E9
:10528000CD92DD92ED92FC92DF97EA8DFB8DE65098
:10529000FF4F4083518362837383EA8DFB8DE2501D
:1052A000FF4F2083EA8DFB8DE150FF4F30839996AD
:1052B0003C9299979A962C929A97ED819B96EC93B3
:1052C00080E490E0A0E0B0E0EA8DFB8DEE5FFE4F61
:1052D00080839183A283B383EA8DFB8DF3958E84C3
:1052E0008082EA8DFB8DEF5FFE4F9E809082EA8D7B
:1052F000FB8DEA5FFE4FAC80A082EA8DFB8DE95FFB
:10530000FE4F8A859B85AC85BD8580839183A28372
:10531000B383EA8DFB8DE55FFE4F9B819083D801BF
:1053200059968D919C918633910509F001C28DE4C7
:1053300092E1EA8DFB8DEC5BFE4F91838083EA8DD9
:10534000FB8DEA5BFE4F118210828FE492E1EA8DC1
:10535000FB8DE45BFE4F91838083EA8DFB8DE25BE6
:10536000FE4F11821082F801878D90A14A97E1F4D7
:1053700081E692E1EA8DFB8DE85BFE4F91838083AD
:10538000EA8DFB8DE65BFE4F1182108283E692E18F
:10539000EA8DFB8DE05BFE4F91838083EA8DFB8D70
:1053A000EE5AFE4F11821082EA8CFB8CFCEAEF1A57
:1053B000FEEFFF0AEA8DFB8DEB5EFC4F80808B8257
:1053C000EA8DFB8DE15FFC4F80819181A281B381E9
:1053D0008A879B87AC87BD87EA8DFB8DE75CFC4F96
:1053E00090819C83EA8DFB8DEE5BFC4F3080EA8DD3
:1053F000FB8DED5CFC4FA081AD83EA8DFB8DEA5CFB
:10540000FC4F2080EA8DFB8DE15CFC4FC080EA8D73
:10541000FB8DE45CFC4FD080EA8DFB8DEA5FFC4F96
:105420003081EA8DFB8DED55FD4F2081EA8DFB8D9E
:10543000E55BFC4F80809180A280B3808E829F824A
:10544000A886B986EA8DFB8DFD5F80819181A2815E
:10545000B3818E879F87A88BB98BEA8DFB8DEC502B
:10546000FD4F80809180A280B3808C8E9D8EAE8E09
:10547000BF8EEA8DFB8DE851FD4F80819181A28125
:10548000B3818A8B9B8BAC8BBD8BEA8DFB8DE452F9
:10549000FD4F80819181A281B381EA8DFB8DE05324
:1054A000FD4F4080518062807380EA8DFB8DE8540F
:1054B000FD4F4081518162817381EA8DFB8DE455FE
:1054C000FD4F80809180A280B380F70184A695A6CD
:1054D000A6A6B7A644AA55AA66AA77AAEA8DFB8D06
:1054E000EC56FE4F8C8C9D8CAE8CBF8C8082918252
:1054F000A282B382F70140AB51AB62AB73AB80AF1A
:1055000091AFA2AFB3AFEA8DFB8DE856FE4F8E840C
:105510009F84A888B98880829182A282B3828A8976
:105520009B89AC89BD89F70184AF95AFA6AFB7AFB2
:10553000EA8DFB8DE456FE4F8E809F80A884B9844F
:1055400080829182A282B382EA8DFB8DE056FE4F6B
:105550002083EA8DFB8DEF55FE4F3083D70199965E
:10556000DC9299979A96CC929A979B963C9280E47B
:1055700090E0A0E0B0E0EA8DFB8DEC55FE4F80831B
:105580009183A283B383EA8DFB8DEE55FE4F20827B
:10559000EA8DFB8DED55FE4FBD81B083EA8DFB8D0D
:1055A000E855FE4F8C808082EA8DFB8DE755FE4FDB
:1055B0008A859B85AC85BD8580839183A283B383D7
:1055C000EA8DFB8DE355FE4F9B819083D701599661
:1055D0008D919C918633910509F0D2C08DE492E1C2
:1055E000EA8DFB8DEA51FE4F91838083EA8DFB8D1E
:1055F000E851FE4F118210828FE492E1EA8DFB8D1B
:10560000E251FE4F91838083EA8DFB8DE051FE4F86
:1056100011821082F701878D90A14A97E1F481E60B
:1056200092E1EA8DFB8DE651FE4F91838083EA8DF6
:10563000FB8DE451FE4F1182108283E692E1EA8DE8
:10564000FB8DEE50FE4F91838083EA8DFB8DEC50F5
:10565000FE4F11821082EA8DFB8DE25DFC4F80814E
:10566000882309F4B5C089819A810E943613EA8D96
:10567000FB8DE15DFC4F8081882309F4AEC0C80139
:105680000E9436138A8D9B8D805D9C4FDC018C912E
:10569000882309F4A6C0C7016F960FB6F894DEBF41
:1056A0000FBECDBFDF91CF911F910F91FF90EF9073
:1056B000DF90CF90BF90AF909F908F907F906F9032
:1056C0005F904F903F902F900C9436138C33910540
:1056D000D9F481E592E1EA8DFB8DEE55FF4F918380
:1056E0008083EA8DFB8DEC55FF4F1182108283E59C
:1056F00092E1EA8DFB8DE655FF4F91838083EA8D21
:10570000FB8DE455FF4F0CCD8E9709F00BCD85E551
:1057100092E1EA8DFB8DEE55FF4F91838083EA8DF8
:10572000FB8DEC55FF4F118210828BE592E1E1CFAA
:105730008C33910589F481E592E1EA8DFB8DEC5B78
:10574000FE4F91838083EA8DFB8DEA5BFE4F1182D1
:10575000108283E592E1FBCD8E9709F004CE85E5BA
:1057600092E1EA8DFB8DEC5BFE4F91838083EA8DA5
:10577000FB8DEA5BFE4F118210828BE592E1E7CD53
:105780008C33910589F481E592E1EA8DFB8DEA5134
:10579000FE4F91838083EA8DFB8DE851FE4F11828D
:1057A000108283E592E12ACF8E9709F033CF85E509
:1057B00092E1EA8DFB8DEA51FE4F91838083EA8D61
:1057C000FB8DE851FE4F118210828BE592E116CFDE
:1057D00089819A810E94F4124ACFC8010E94F41272
:1057E00051CFC7016F960FB6F894DEBF0FBECDBF85
:1057F000DF91CF911F910F91FF90EF90DF90CF90AD
:10580000BF90AF909F908F907F906F905F904F90E0
:105810003F902F900C94F412AF92BF92CF92DF92F0
:10582000EF92FF920F931F93CF93DF93EC018AE1E6
:1058300090E09AA789A78BE190E09CA78BA789E1CC
:1058400090E09EA78DA78FE090E098AB8FA78EE1A8
:1058500090E09AAB89AB8EE090E09CAB8BAB85E49B
:1058600090E09EAB8DAB84E490E098AF8FABFE01EF
:10587000EE54FF4F80E290E0928F818F81E290E0C2
:10588000948F838F8FE190E0968F858F10A2178E73
:1058900012A211A214A213A283E490E096A385A3FE
:1058A00082E490E090A787A3EE55FF4F83E290E05B
:1058B000928F818F84E290E0948F838F82E290E0D8
:1058C000968F858F10A2178E12A211A214A213A276
:1058D00081E490E096A385A380E490E090A787A35D
:1058E000E95BFE4F1182108232961182108232964D
:1058F00011821082CE010E94E222CE010E94052177
:10590000CE018A509E4F41E050E0FC0157A746A7C8
:10591000DE01AA5DBD4F24E030E09F963C932E93BC
:105920009E975E01FAEAAF1AFDEFBF0A28E030E069
:10593000F50137A726A720E130E0FC013183208361
:1059400021E130E0358324832FEF3FEF338322833F
:1059500037832683628560876385618767E170E0AE
:1059600011967C936E9368E170E015967C936E932C
:10597000149713963C932E93129717963C932E935D
:1059800016971A966C911A9718966C9318971B96FF
:105990006C911B9719966C9319976DE170E0F50166
:1059A000718360836CE170E0758364833383228349
:1059B000378326836285608763856187BE016E5465
:1059C0007C4FFB01608171818E0100561C4FF801F4
:1059D000C080D180E280F38006501109F801008177
:1059E0001181FC01158F048FC48AD58AE68AF78A53
:1059F0006130710509F04EC0378F268FCE018C546F
:105A00009C4FFC01808191819E012C553C4FF901F6
:105A1000408151816281738128503109F9012081CF
:105A200031815D963C932E935C9754964D935D9394
:105A30006D937C935797019781F58FEF9FEF5F965A
:105A40009C938E935E97DE01AA54BC4F8D919C91DE
:105A500011971E974D915D916D917C91C256DC4FCF
:105A600028813981F501358F248F448B558B668BC6
:105A7000778B0197A9F48FEF9FEF978F868FDF9138
:105A8000CF911F910F91FF90EF90DF90CF90BF903B
:105A9000AF900895578F468FB1CF81E090E0CFCF80
:105AA00081E090E0EACFBF92CF92DF92EF92FF9237
:105AB0000F931F93CF93DF93EC010E94F41FE090AC
:105AC000C10BF090C20B0E94F41FC090D10BD0907C
:105AD000D20B0E94F41FB090E90B1091EA0B0E94C8
